{
  "_format": "hh-sol-artifact-1",
  "contractName": "CardWarEscrow",
  "sourceName": "contracts/CardWarEscrow.sol",
  "abi": [
    {
      "inputs": [],
      "stateMutability": "nonpayable",
      "type": "constructor"
    },
    {
      "inputs": [
        {
          "internalType": "address",
          "name": "owner",
          "type": "address"
        }
      ],
      "name": "OwnableInvalidOwner",
      "type": "error"
    },
    {
      "inputs": [
        {
          "internalType": "address",
          "name": "account",
          "type": "address"
        }
      ],
      "name": "OwnableUnauthorizedAccount",
      "type": "error"
    },
    {
      "inputs": [],
      "name": "ReentrancyGuardReentrantCall",
      "type": "error"
    },
    {
      "anonymous": false,
      "inputs": [
        {
          "indexed": true,
          "internalType": "bytes32",
          "name": "gameKey",
          "type": "bytes32"
        }
      ],
      "name": "GameCancelled",
      "type": "event"
    },
    {
      "anonymous": false,
      "inputs": [
        {
          "indexed": true,
          "internalType": "bytes32",
          "name": "gameKey",
          "type": "bytes32"
        },
        {
          "indexed": false,
          "internalType": "string",
          "name": "gameId",
          "type": "string"
        },
        {
          "indexed": true,
          "internalType": "address",
          "name": "player1",
          "type": "address"
        },
        {
          "indexed": false,
          "internalType": "uint256",
          "name": "wager",
          "type": "uint256"
        }
      ],
      "name": "GameCreated",
      "type": "event"
    },
    {
      "anonymous": false,
      "inputs": [
        {
          "indexed": true,
          "internalType": "bytes32",
          "name": "gameKey",
          "type": "bytes32"
        },
        {
          "indexed": true,
          "internalType": "address",
          "name": "player2",
          "type": "address"
        }
      ],
      "name": "GameJoined",
      "type": "event"
    },
    {
      "anonymous": false,
      "inputs": [
        {
          "indexed": true,
          "internalType": "bytes32",
          "name": "gameKey",
          "type": "bytes32"
        },
        {
          "indexed": true,
          "internalType": "address",
          "name": "winner",
          "type": "address"
        },
        {
          "indexed": false,
          "internalType": "uint256",
          "name": "payout",
          "type": "uint256"
        }
      ],
      "name": "GameSettled",
      "type": "event"
    },
    {
      "anonymous": false,
      "inputs": [
        {
          "indexed": true,
          "internalType": "address",
          "name": "to",
          "type": "address"
        },
        {
          "indexed": false,
          "internalType": "uint256",
          "name": "amount",
          "type": "uint256"
        }
      ],
      "name": "HouseWithdrawn",
      "type": "event"
    },
    {
      "anonymous": false,
      "inputs": [
        {
          "indexed": true,
          "internalType": "address",
          "name": "operator",
          "type": "address"
        },
        {
          "indexed": false,
          "internalType": "bool",
          "name": "enabled",
          "type": "bool"
        }
      ],
      "name": "OperatorSet",
      "type": "event"
    },
    {
      "anonymous": false,
      "inputs": [
        {
          "indexed": true,
          "internalType": "address",
          "name": "previousOwner",
          "type": "address"
        },
        {
          "indexed": true,
          "internalType": "address",
          "name": "newOwner",
          "type": "address"
        }
      ],
      "name": "OwnershipTransferred",
      "type": "event"
    },
    {
      "inputs": [],
      "name": "BPS_DENOMINATOR",
      "outputs": [
        {
          "internalType": "uint256",
          "name": "",
          "type": "uint256"
        }
      ],
      "stateMutability": "view",
      "type": "function"
    },
    {
      "inputs": [],
      "name": "HOUSE_FEE_BPS",
      "outputs": [
        {
          "internalType": "uint256",
          "name": "",
          "type": "uint256"
        }
      ],
      "stateMutability": "view",
      "type": "function"
    },
    {
      "inputs": [
        {
          "internalType": "string",
          "name": "gameId",
          "type": "string"
        }
      ],
      "name": "cancelGame",
      "outputs": [],
      "stateMutability": "nonpayable",
      "type": "function"
    },
    {
      "inputs": [
        {
          "internalType": "string",
          "name": "gameId",
          "type": "string"
        }
      ],
      "name": "createGame",
      "outputs": [],
      "stateMutability": "payable",
      "type": "function"
    },
    {
      "inputs": [
        {
          "internalType": "bytes32",
          "name": "",
          "type": "bytes32"
        }
      ],
      "name": "games",
      "outputs": [
        {
          "internalType": "address",
          "name": "player1",
          "type": "address"
        },
        {
          "internalType": "address",
          "name": "player2",
          "type": "address"
        },
        {
          "internalType": "uint256",
          "name": "wager",
          "type": "uint256"
        },
        {
          "internalType": "enum CardWarEscrow.GameStatus",
          "name": "status",
          "type": "uint8"
        },
        {
          "internalType": "address",
          "name": "winner",
          "type": "address"
        },
        {
          "internalType": "string",
          "name": "gameId",
          "type": "string"
        }
      ],
      "stateMutability": "view",
      "type": "function"
    },
    {
      "inputs": [
        {
          "internalType": "string",
          "name": "gameId",
          "type": "string"
        }
      ],
      "name": "getGame",
      "outputs": [
        {
          "components": [
            {
              "internalType": "address",
              "name": "player1",
              "type": "address"
            },
            {
              "internalType": "address",
              "name": "player2",
              "type": "address"
            },
            {
              "internalType": "uint256",
              "name": "wager",
              "type": "uint256"
            },
            {
              "internalType": "enum CardWarEscrow.GameStatus",
              "name": "status",
              "type": "uint8"
            },
            {
              "internalType": "address",
              "name": "winner",
              "type": "address"
            },
            {
              "internalType": "string",
              "name": "gameId",
              "type": "string"
            }
          ],
          "internalType": "struct CardWarEscrow.Game",
          "name": "",
          "type": "tuple"
        }
      ],
      "stateMutability": "view",
      "type": "function"
    },
    {
      "inputs": [],
      "name": "houseBalance",
      "outputs": [
        {
          "internalType": "uint256",
          "name": "",
          "type": "uint256"
        }
      ],
      "stateMutability": "view",
      "type": "function"
    },
    {
      "inputs": [
        {
          "internalType": "string",
          "name": "gameId",
          "type": "string"
        }
      ],
      "name": "joinGame",
      "outputs": [],
      "stateMutability": "payable",
      "type": "function"
    },
    {
      "inputs": [
        {
          "internalType": "address",
          "name": "",
          "type": "address"
        }
      ],
      "name": "operators",
      "outputs": [
        {
          "internalType": "bool",
          "name": "",
          "type": "bool"
        }
      ],
      "stateMutability": "view",
      "type": "function"
    },
    {
      "inputs": [],
      "name": "owner",
      "outputs": [
        {
          "internalType": "address",
          "name": "",
          "type": "address"
        }
      ],
      "stateMutability": "view",
      "type": "function"
    },
    {
      "inputs": [],
      "name": "renounceOwnership",
      "outputs": [],
      "stateMutability": "nonpayable",
      "type": "function"
    },
    {
      "inputs": [
        {
          "internalType": "address",
          "name": "operator",
          "type": "address"
        },
        {
          "internalType": "bool",
          "name": "enabled",
          "type": "bool"
        }
      ],
      "name": "setOperator",
      "outputs": [],
      "stateMutability": "nonpayable",
      "type": "function"
    },
    {
      "inputs": [
        {
          "internalType": "string",
          "name": "gameId",
          "type": "string"
        },
        {
          "internalType": "address",
          "name": "winner",
          "type": "address"
        }
      ],
      "name": "settleGame",
      "outputs": [],
      "stateMutability": "nonpayable",
      "type": "function"
    },
    {
      "inputs": [
        {
          "internalType": "address",
          "name": "newOwner",
          "type": "address"
        }
      ],
      "name": "transferOwnership",
      "outputs": [],
      "stateMutability": "nonpayable",
      "type": "function"
    },
    {
      "inputs": [
        {
          "internalType": "address",
          "name": "to",
          "type": "address"
        }
      ],
      "name": "withdrawHouse",
      "outputs": [],
      "stateMutability": "nonpayable",
      "type": "function"
    }
  ],
  "bytecode": "0x608060405234801561001057600080fd5b50338061003757604051631e4fbdf760e01b81526000600482015260240160405180910390fd5b61004081610065565b506001808055336000908152600360205260409020805460ff191690911790556100b5565b600080546001600160a01b038381166001600160a01b0319831681178455604051919092169283917f8be0079c531659141344cd1fd0a4f28419497f9722a3daafe3b4186f6b6457e09190a35050565b611588806100c46000396000f3fe6080604052600436106100e85760003560e01c80634d92f6521161008a5780638da5cb5b116100595780638da5cb5b14610256578063e1a452181461027e578063f2fde38b14610294578063f579f882146102b457600080fd5b80634d92f652146101de578063558a72971461020b57806367084eb31461022b578063715018a61461024157600080fd5b80631b2d199b116100c65780631b2d199b146101785780632ccce58a146101985780632ebc0504146101b85780633d536a2e146101cb57600080fd5b806311fcfc60146100ed57806313e7c9d81461010f5780631594b25614610154575b600080fd5b3480156100f957600080fd5b5061010d61010836600461109f565b6102e6565b005b34801561011b57600080fd5b5061013f61012a36600461109f565b60036020526000908152604090205460ff1681565b60405190151581526020015b60405180910390f35b34801561016057600080fd5b5061016a61012c81565b60405190815260200161014b565b34801561018457600080fd5b5061010d61019336600461110a565b6103e9565b3480156101a457600080fd5b5061010d6101b336600461115e565b6106c1565b61010d6101c636600461115e565b6108c1565b61010d6101d936600461115e565b610b29565b3480156101ea57600080fd5b506101fe6101f936600461115e565b610cc5565b60405161014b919061121e565b34801561021757600080fd5b5061010d61022636600461128a565b610e53565b34801561023757600080fd5b5061016a60045481565b34801561024d57600080fd5b5061010d610eba565b34801561026257600080fd5b506000546040516001600160a01b03909116815260200161014b565b34801561028a57600080fd5b5061016a61271081565b3480156102a057600080fd5b5061010d6102af36600461109f565b610ece565b3480156102c057600080fd5b506102d46102cf3660046112c6565b610f09565b60405161014b969594939291906112df565b6102ee610fdc565b6102f6611009565b600480546000918290556040519091906001600160a01b0384169083908381818185875af1925050503d806000811461034b576040519150601f19603f3d011682016040523d82523d6000602084013e610350565b606091505b50509050806103985760405162461bcd60e51b815260206004820152600f60248201526e15da5d1a191c985dc819985a5b1959608a1b60448201526064015b60405180910390fd5b826001600160a01b03167fd7d7cc9b93e284aa94ef15ab7a70191483528f4e45d0bd07818aef974077ba78836040516103d391815260200190565b60405180910390a250506103e660018055565b50565b3360009081526003602052604090205460ff168061041157506000546001600160a01b031633145b61044c5760405162461bcd60e51b815260206004820152600c60248201526b2737ba1037b832b930ba37b960a11b604482015260640161038f565b610454611009565b60008383604051602001610469929190611334565b60408051601f19818403018152918152815160209283012060008181526002938490529190912090925090600382015460ff1660048111156104ad576104ad6111a0565b146104ec5760405162461bcd60e51b815260206004820152600f60248201526e47616d65206e6f742061637469766560881b604482015260640161038f565b80546001600160a01b0384811691161480610516575060018101546001600160a01b038481169116145b6105535760405162461bcd60e51b815260206004820152600e60248201526d24b73b30b634b2103bb4b73732b960911b604482015260640161038f565b600081600201546002610566919061135a565b9050600061271061057961012c8461135a565b6105839190611371565b905060006105918284611393565b600385810180546001600160a81b0319166101006001600160a01b038b160260ff19161790911790556004805491925083916000906105d19084906113a6565b90915550506040516000906001600160a01b0388169083908381818185875af1925050503d8060008114610621576040519150601f19603f3d011682016040523d82523d6000602084013e610626565b606091505b50509050806106695760405162461bcd60e51b815260206004820152600f60248201526e151c985b9cd9995c8819985a5b1959608a1b604482015260640161038f565b866001600160a01b0316867ffce0354c00ab4af4f14f27d7f87c8dd1af58253004b4438717419da2b4a899dd846040516106a591815260200190565b60405180910390a35050505050506106bc60018055565b505050565b6106c9611009565b600082826040516020016106de929190611334565b60408051601f1981840301815291815281516020928301206000818152600290935291209091506001600382015460ff166004811115610720576107206111a0565b1461075d5760405162461bcd60e51b815260206004820152600d60248201526c10d85b9b9bdd0818d85b98d95b609a1b604482015260640161038f565b80546001600160a01b031633148061078457503360009081526003602052604090205460ff165b8061079957506000546001600160a01b031633145b6107d65760405162461bcd60e51b815260206004820152600e60248201526d139bdd08185d5d1a1bdc9a5e995960921b604482015260640161038f565b60038101805460ff1916600417905560028101805460009182905582546040519192916001600160a01b039091169083908381818185875af1925050503d806000811461083f576040519150601f19603f3d011682016040523d82523d6000602084013e610844565b606091505b50509050806108855760405162461bcd60e51b815260206004820152600d60248201526c1499599d5b990819985a5b1959609a1b604482015260640161038f565b60405184907f730d9f4e127b4c1c5d999194f79025fe149736fbb95b0755b18ed20ddd01b4e090600090a2505050506108bd60018055565b5050565b6108c9611009565b6000341161090d5760405162461bcd60e51b815260206004820152601160248201527005761676572206d757374206265203e203607c1b604482015260640161038f565b60008282604051602001610922929190611334565b60408051601f19818403018152919052805160209091012090506000808281526002602052604090206003015460ff166004811115610963576109636111a0565b146109a65760405162461bcd60e51b815260206004820152601360248201527247616d6520616c72656164792065786973747360681b604482015260640161038f565b6040805160c081018252338152600060208201523491810191909152606081016001815260200160006001600160a01b0316815260200184848080601f016020809104026020016040519081016040528093929190818152602001838380828437600092018290525093909452505083815260026020818152604092839020855181546001600160a01b039182166001600160a01b031991821617835592870151600180840180549290931691909416179055928501519183019190915560608401516003830180549394509092909160ff1990911690836004811115610a8f57610a8f6111a0565b021790555060808201516003820180546001600160a01b0390921661010002610100600160a81b031990921691909117905560a08201516004820190610ad59082611459565b50905050336001600160a01b0316817fb952d2496b395eccfdc104f17b5eb24ab6edabe1d46701b37681792b6a6aeb4b858534604051610b1793929190611519565b60405180910390a3506108bd60018055565b610b31611009565b60008282604051602001610b46929190611334565b60408051601f1981840301815291815281516020928301206000818152600290935291209091506001600382015460ff166004811115610b8857610b886111a0565b14610bc55760405162461bcd60e51b815260206004820152600d60248201526c23b0b6b2903737ba1037b832b760991b604482015260640161038f565b80546001600160a01b03163303610c155760405162461bcd60e51b815260206004820152601460248201527321b0b73737ba10383630bc903cb7bab939b2b63360611b604482015260640161038f565b80600201543414610c685760405162461bcd60e51b815260206004820152601860248201527f4d757374206d617463682077616765722065786163746c790000000000000000604482015260640161038f565b600181018054336001600160a01b0319909116811790915560038201805460ff1916600217905560405183907f719256502a190a7b4efbca7f56497055f1dccc51e2dca31d166dd41353fa21c290600090a350506108bd60018055565b610cfe6040805160c081018252600080825260208201819052918101829052906060820190815260006020820152606060409091015290565b60008383604051602001610d13929190611334565b60408051601f198184030181528282528051602091820120600081815260028084529084902060c08601855280546001600160a01b0390811687526001820154169386019390935282015492840192909252600381015491935090606083019060ff166004811115610d8757610d876111a0565b6004811115610d9857610d986111a0565b8152600382015461010090046001600160a01b03166020820152600482018054604090920191610dc7906113cf565b80601f0160208091040260200160405190810160405280929190818152602001828054610df3906113cf565b8015610e405780601f10610e1557610100808354040283529160200191610e40565b820191906000526020600020905b815481529060010190602001808311610e2357829003601f168201915b5050505050815250509150505b92915050565b610e5b610fdc565b6001600160a01b038216600081815260036020908152604091829020805460ff191685151590811790915591519182527f1a594081ae893ab78e67d9b9e843547318164322d32c65369d78a96172d9dc8f910160405180910390a25050565b610ec2610fdc565b610ecc6000611033565b565b610ed6610fdc565b6001600160a01b038116610f0057604051631e4fbdf760e01b81526000600482015260240161038f565b6103e681611033565b6002602081905260009182526040909120805460018201549282015460038301546004840180546001600160a01b0394851696851695939460ff84169461010090940416929190610f59906113cf565b80601f0160208091040260200160405190810160405280929190818152602001828054610f85906113cf565b8015610fd25780601f10610fa757610100808354040283529160200191610fd2565b820191906000526020600020905b815481529060010190602001808311610fb557829003601f168201915b5050505050905086565b6000546001600160a01b03163314610ecc5760405163118cdaa760e01b815233600482015260240161038f565b60026001540361102c57604051633ee5aeb560e01b815260040160405180910390fd5b6002600155565b600080546001600160a01b038381166001600160a01b0319831681178455604051919092169283917f8be0079c531659141344cd1fd0a4f28419497f9722a3daafe3b4186f6b6457e09190a35050565b80356001600160a01b038116811461109a57600080fd5b919050565b6000602082840312156110b157600080fd5b6110ba82611083565b9392505050565b60008083601f8401126110d357600080fd5b50813567ffffffffffffffff8111156110eb57600080fd5b60208301915083602082850101111561110357600080fd5b9250929050565b60008060006040848603121561111f57600080fd5b833567ffffffffffffffff81111561113657600080fd5b611142868287016110c1565b9094509250611155905060208501611083565b90509250925092565b6000806020838503121561117157600080fd5b823567ffffffffffffffff81111561118857600080fd5b611194858286016110c1565b90969095509350505050565b634e487b7160e01b600052602160045260246000fd5b600581106111d457634e487b7160e01b600052602160045260246000fd5b9052565b6000815180845260005b818110156111fe576020818501810151868301820152016111e2565b506000602082860101526020601f19601f83011685010191505092915050565b60208152600060018060a01b0380845116602084015280602085015116604084015260408401516060840152606084015161125c60808501826111b6565b508060808501511660a08401525060a083015160c08084015261128260e08401826111d8565b949350505050565b6000806040838503121561129d57600080fd5b6112a683611083565b9150602083013580151581146112bb57600080fd5b809150509250929050565b6000602082840312156112d857600080fd5b5035919050565b6001600160a01b03878116825286811660208301526040820186905260009061130b60608401876111b6565b80851660808401525060c060a083015261132860c08301846111d8565b98975050505050505050565b8183823760009101908152919050565b634e487b7160e01b600052601160045260246000fd5b8082028115828204841417610e4d57610e4d611344565b60008261138e57634e487b7160e01b600052601260045260246000fd5b500490565b81810381811115610e4d57610e4d611344565b80820180821115610e4d57610e4d611344565b634e487b7160e01b600052604160045260246000fd5b600181811c908216806113e357607f821691505b60208210810361140357634e487b7160e01b600052602260045260246000fd5b50919050565b601f8211156106bc576000816000526020600020601f850160051c810160208610156114325750805b601f850160051c820191505b818110156114515782815560010161143e565b505050505050565b815167ffffffffffffffff811115611473576114736113b9565b6114878161148184546113cf565b84611409565b602080601f8311600181146114bc57600084156114a45750858301515b600019600386901b1c1916600185901b178555611451565b600085815260208120601f198616915b828110156114eb578886015182559484019460019091019084016114cc565b50858210156115095787850151600019600388901b60f8161c191681555b5050505050600190811b01905550565b604081528260408201528284606083013760006060848301015260006060601f19601f860116830101905082602083015294935050505056fea26469706673582212203fc102b5535ab4bb45be7196bd88b059d9ed7f766bba9cc1782a955823a47c5b64736f6c63430008180033",
  "linkReferences": {},
  "deployedLinkReferences": {}
}